{
  "contracts/test/TestMathGas.sol": {
    "TestMathGas": {
      "abi": [
        {
          "inputs": [
            {
              "internalType": "uint256",
              "name": "x",
              "type": "uint256"
            }
          ],
          "name": "log2",
          "outputs": [
            {
              "internalType": "uint256",
              "name": "y",
              "type": "uint256"
            }
          ],
          "stateMutability": "pure",
          "type": "function"
        },
        {
          "inputs": [
            {
              "internalType": "uint256",
              "name": "x",
              "type": "uint256"
            },
            {
              "internalType": "uint256",
              "name": "y",
              "type": "uint256"
            }
          ],
          "name": "multiply",
          "outputs": [
            {
              "internalType": "uint256",
              "name": "",
              "type": "uint256"
            }
          ],
          "stateMutability": "pure",
          "type": "function"
        },
        {
          "inputs": [
            {
              "internalType": "uint256",
              "name": "x",
              "type": "uint256"
            },
            {
              "internalType": "uint8",
              "name": "factor_",
              "type": "uint8"
            }
          ],
          "name": "power",
          "outputs": [
            {
              "internalType": "uint256",
              "name": "",
              "type": "uint256"
            }
          ],
          "stateMutability": "pure",
          "type": "function"
        }
      ],
      "evm": {
        "bytecode": {
          "linkReferences": {},
          "object": "608060405234801561001057600080fd5b506106b6806100206000396000f3fe608060405234801561001057600080fd5b50600436106100415760003560e01c806314ae3dfe14610046578063165c4a16146100765780635456bf13146100a6575b600080fd5b610060600480360381019061005b91906103c5565b6100d6565b60405161006d9190610414565b60405180910390f35b610090600480360381019061008b9190610385565b6100ec565b60405161009d9190610414565b60405180910390f35b6100c060048036038101906100bb9190610358565b610102565b6040516100cd9190610414565b60405180910390f35b600081836100e49190610482565b905092915050565b600081836100fa91906105a0565b905092915050565b60008160018303925060028304831792506004830483179250601083048317925061010083048317925062010000830483179250640100000000830483179250680100000000000000008304831792507001000000000000000000000000000000008304831792506001830192506040517ff8f9cbfae6cc78fbefe7cdc3a1793dfcf4f0e8bbd8cec470b6a28a7a5a3e1efd81527ff5ecf1b3e9debc68e1d9cfabc5997135bfb7a7a3938b7b606b5b4b3f2f1f0ffe60208201527ff6e4ed9ff2d6b458eadcdf97bd91692de2d4da8fd2d0ac50c6ae9a827252361660408201527fc8c0b887b0a8a4489c948c7f847c6125746c645c544c444038302820181008ff60608201527ff7cae577eec2a03cf3bad76fb589591debb2dd67e0aa9834bea6925f6a4a2e0e60808201527fe39ed557db96902cd38ed14fad815115c786af479b7e8324736353433727170760a08201527fc976c13bb96e881cb166a933a55e490d9d56952b8d4e801485467d236242260660c08201527f753a6d1b65325d0c552a4d1345224105391a310b29122104190a11030902010060e082015261010081016040527e818283848586878898a8b8c8d8e8f929395969799a9b9d9e9faaeb6bedeeff7f01000000000000000000000000000000000000000000000000000000000000008082870204818160ff038501510495507f8000000000000000000000000000000000000000000000000000000000000000851161010002860195505050505050919050565b60008135905061033d81610652565b92915050565b60008135905061035281610669565b92915050565b60006020828403121561036e5761036d610640565b5b600061037c8482850161032e565b91505092915050565b6000806040838503121561039c5761039b610640565b5b60006103aa8582860161032e565b92505060206103bb8582860161032e565b9150509250929050565b600080604083850312156103dc576103db610640565b5b60006103ea8582860161032e565b92505060206103fb85828601610343565b9150509250929050565b61040e816105fa565b82525050565b60006020820190506104296000830184610405565b92915050565b6000808291508390505b60018511156104795780860481111561045557610454610611565b5b60018516156104645780820291505b808102905061047285610645565b9450610439565b94509492505050565b600061048d826105fa565b915061049883610604565b92506104c57fffffffffffffffffffffffffffffffffffffffffffffffffffffffffffffffff84846104cd565b905092915050565b6000826104dd5760019050610599565b816104eb5760009050610599565b8160018114610501576002811461050b5761053a565b6001915050610599565b60ff84111561051d5761051c610611565b5b8360020a91508482111561053457610533610611565b5b50610599565b5060208310610133831016604e8410600b841016171561056f5782820a90508381111561056a57610569610611565b5b610599565b61057c848484600161042f565b9250905081840481111561059357610592610611565b5b81810290505b9392505050565b60006105ab826105fa565b91506105b6836105fa565b9250817fffffffffffffffffffffffffffffffffffffffffffffffffffffffffffffffff04831182151516156105ef576105ee610611565b5b828202905092915050565b6000819050919050565b600060ff82169050919050565b7f4e487b7100000000000000000000000000000000000000000000000000000000600052601160045260246000fd5b600080fd5b60008160011c9050919050565b61065b816105fa565b811461066657600080fd5b50565b61067281610604565b811461067d57600080fd5b5056fea2646970667358221220a160f9e01d5e03aec5f24cf17ff41cf5a6943de2e50531240378cd92ebbc1ff264736f6c63430008050033",
          "opcodes": "PUSH1 0x80 PUSH1 0x40 MSTORE CALLVALUE DUP1 ISZERO PUSH2 0x10 JUMPI PUSH1 0x0 DUP1 REVERT JUMPDEST POP PUSH2 0x6B6 DUP1 PUSH2 0x20 PUSH1 0x0 CODECOPY PUSH1 0x0 RETURN INVALID PUSH1 0x80 PUSH1 0x40 MSTORE CALLVALUE DUP1 ISZERO PUSH2 0x10 JUMPI PUSH1 0x0 DUP1 REVERT JUMPDEST POP PUSH1 0x4 CALLDATASIZE LT PUSH2 0x41 JUMPI PUSH1 0x0 CALLDATALOAD PUSH1 0xE0 SHR DUP1 PUSH4 0x14AE3DFE EQ PUSH2 0x46 JUMPI DUP1 PUSH4 0x165C4A16 EQ PUSH2 0x76 JUMPI DUP1 PUSH4 0x5456BF13 EQ PUSH2 0xA6 JUMPI JUMPDEST PUSH1 0x0 DUP1 REVERT JUMPDEST PUSH2 0x60 PUSH1 0x4 DUP1 CALLDATASIZE SUB DUP2 ADD SWAP1 PUSH2 0x5B SWAP2 SWAP1 PUSH2 0x3C5 JUMP JUMPDEST PUSH2 0xD6 JUMP JUMPDEST PUSH1 0x40 MLOAD PUSH2 0x6D SWAP2 SWAP1 PUSH2 0x414 JUMP JUMPDEST PUSH1 0x40 MLOAD DUP1 SWAP2 SUB SWAP1 RETURN JUMPDEST PUSH2 0x90 PUSH1 0x4 DUP1 CALLDATASIZE SUB DUP2 ADD SWAP1 PUSH2 0x8B SWAP2 SWAP1 PUSH2 0x385 JUMP JUMPDEST PUSH2 0xEC JUMP JUMPDEST PUSH1 0x40 MLOAD PUSH2 0x9D SWAP2 SWAP1 PUSH2 0x414 JUMP JUMPDEST PUSH1 0x40 MLOAD DUP1 SWAP2 SUB SWAP1 RETURN JUMPDEST PUSH2 0xC0 PUSH1 0x4 DUP1 CALLDATASIZE SUB DUP2 ADD SWAP1 PUSH2 0xBB SWAP2 SWAP1 PUSH2 0x358 JUMP JUMPDEST PUSH2 0x102 JUMP JUMPDEST PUSH1 0x40 MLOAD PUSH2 0xCD SWAP2 SWAP1 PUSH2 0x414 JUMP JUMPDEST PUSH1 0x40 MLOAD DUP1 SWAP2 SUB SWAP1 RETURN JUMPDEST PUSH1 0x0 DUP2 DUP4 PUSH2 0xE4 SWAP2 SWAP1 PUSH2 0x482 JUMP JUMPDEST SWAP1 POP SWAP3 SWAP2 POP POP JUMP JUMPDEST PUSH1 0x0 DUP2 DUP4 PUSH2 0xFA SWAP2 SWAP1 PUSH2 0x5A0 JUMP JUMPDEST SWAP1 POP SWAP3 SWAP2 POP POP JUMP JUMPDEST PUSH1 0x0 DUP2 PUSH1 0x1 DUP4 SUB SWAP3 POP PUSH1 0x2 DUP4 DIV DUP4 OR SWAP3 POP PUSH1 0x4 DUP4 DIV DUP4 OR SWAP3 POP PUSH1 0x10 DUP4 DIV DUP4 OR SWAP3 POP PUSH2 0x100 DUP4 DIV DUP4 OR SWAP3 POP PUSH3 0x10000 DUP4 DIV DUP4 OR SWAP3 POP PUSH5 0x100000000 DUP4 DIV DUP4 OR SWAP3 POP PUSH9 0x10000000000000000 DUP4 DIV DUP4 OR SWAP3 POP PUSH17 0x100000000000000000000000000000000 DUP4 DIV DUP4 OR SWAP3 POP PUSH1 0x1 DUP4 ADD SWAP3 POP PUSH1 0x40 MLOAD PUSH32 0xF8F9CBFAE6CC78FBEFE7CDC3A1793DFCF4F0E8BBD8CEC470B6A28A7A5A3E1EFD DUP2 MSTORE PUSH32 0xF5ECF1B3E9DEBC68E1D9CFABC5997135BFB7A7A3938B7B606B5B4B3F2F1F0FFE PUSH1 0x20 DUP3 ADD MSTORE PUSH32 0xF6E4ED9FF2D6B458EADCDF97BD91692DE2D4DA8FD2D0AC50C6AE9A8272523616 PUSH1 0x40 DUP3 ADD MSTORE PUSH32 0xC8C0B887B0A8A4489C948C7F847C6125746C645C544C444038302820181008FF PUSH1 0x60 DUP3 ADD MSTORE PUSH32 0xF7CAE577EEC2A03CF3BAD76FB589591DEBB2DD67E0AA9834BEA6925F6A4A2E0E PUSH1 0x80 DUP3 ADD MSTORE PUSH32 0xE39ED557DB96902CD38ED14FAD815115C786AF479B7E83247363534337271707 PUSH1 0xA0 DUP3 ADD MSTORE PUSH32 0xC976C13BB96E881CB166A933A55E490D9D56952B8D4E801485467D2362422606 PUSH1 0xC0 DUP3 ADD MSTORE PUSH32 0x753A6D1B65325D0C552A4D1345224105391A310B29122104190A110309020100 PUSH1 0xE0 DUP3 ADD MSTORE PUSH2 0x100 DUP2 ADD PUSH1 0x40 MSTORE PUSH31 0x818283848586878898A8B8C8D8E8F929395969799A9B9D9E9FAAEB6BEDEEFF PUSH32 0x100000000000000000000000000000000000000000000000000000000000000 DUP1 DUP3 DUP8 MUL DIV DUP2 DUP2 PUSH1 0xFF SUB DUP6 ADD MLOAD DIV SWAP6 POP PUSH32 0x8000000000000000000000000000000000000000000000000000000000000000 DUP6 GT PUSH2 0x100 MUL DUP7 ADD SWAP6 POP POP POP POP POP POP SWAP2 SWAP1 POP JUMP JUMPDEST PUSH1 0x0 DUP2 CALLDATALOAD SWAP1 POP PUSH2 0x33D DUP2 PUSH2 0x652 JUMP JUMPDEST SWAP3 SWAP2 POP POP JUMP JUMPDEST PUSH1 0x0 DUP2 CALLDATALOAD SWAP1 POP PUSH2 0x352 DUP2 PUSH2 0x669 JUMP JUMPDEST SWAP3 SWAP2 POP POP JUMP JUMPDEST PUSH1 0x0 PUSH1 0x20 DUP3 DUP5 SUB SLT ISZERO PUSH2 0x36E JUMPI PUSH2 0x36D PUSH2 0x640 JUMP JUMPDEST JUMPDEST PUSH1 0x0 PUSH2 0x37C DUP5 DUP3 DUP6 ADD PUSH2 0x32E JUMP JUMPDEST SWAP2 POP POP SWAP3 SWAP2 POP POP JUMP JUMPDEST PUSH1 0x0 DUP1 PUSH1 0x40 DUP4 DUP6 SUB SLT ISZERO PUSH2 0x39C JUMPI PUSH2 0x39B PUSH2 0x640 JUMP JUMPDEST JUMPDEST PUSH1 0x0 PUSH2 0x3AA DUP6 DUP3 DUP7 ADD PUSH2 0x32E JUMP JUMPDEST SWAP3 POP POP PUSH1 0x20 PUSH2 0x3BB DUP6 DUP3 DUP7 ADD PUSH2 0x32E JUMP JUMPDEST SWAP2 POP POP SWAP3 POP SWAP3 SWAP1 POP JUMP JUMPDEST PUSH1 0x0 DUP1 PUSH1 0x40 DUP4 DUP6 SUB SLT ISZERO PUSH2 0x3DC JUMPI PUSH2 0x3DB PUSH2 0x640 JUMP JUMPDEST JUMPDEST PUSH1 0x0 PUSH2 0x3EA DUP6 DUP3 DUP7 ADD PUSH2 0x32E JUMP JUMPDEST SWAP3 POP POP PUSH1 0x20 PUSH2 0x3FB DUP6 DUP3 DUP7 ADD PUSH2 0x343 JUMP JUMPDEST SWAP2 POP POP SWAP3 POP SWAP3 SWAP1 POP JUMP JUMPDEST PUSH2 0x40E DUP2 PUSH2 0x5FA JUMP JUMPDEST DUP3 MSTORE POP POP JUMP JUMPDEST PUSH1 0x0 PUSH1 0x20 DUP3 ADD SWAP1 POP PUSH2 0x429 PUSH1 0x0 DUP4 ADD DUP5 PUSH2 0x405 JUMP JUMPDEST SWAP3 SWAP2 POP POP JUMP JUMPDEST PUSH1 0x0 DUP1 DUP3 SWAP2 POP DUP4 SWAP1 POP JUMPDEST PUSH1 0x1 DUP6 GT ISZERO PUSH2 0x479 JUMPI DUP1 DUP7 DIV DUP2 GT ISZERO PUSH2 0x455 JUMPI PUSH2 0x454 PUSH2 0x611 JUMP JUMPDEST JUMPDEST PUSH1 0x1 DUP6 AND ISZERO PUSH2 0x464 JUMPI DUP1 DUP3 MUL SWAP2 POP JUMPDEST DUP1 DUP2 MUL SWAP1 POP PUSH2 0x472 DUP6 PUSH2 0x645 JUMP JUMPDEST SWAP5 POP PUSH2 0x439 JUMP JUMPDEST SWAP5 POP SWAP5 SWAP3 POP POP POP JUMP JUMPDEST PUSH1 0x0 PUSH2 0x48D DUP3 PUSH2 0x5FA JUMP JUMPDEST SWAP2 POP PUSH2 0x498 DUP4 PUSH2 0x604 JUMP JUMPDEST SWAP3 POP PUSH2 0x4C5 PUSH32 0xFFFFFFFFFFFFFFFFFFFFFFFFFFFFFFFFFFFFFFFFFFFFFFFFFFFFFFFFFFFFFFFF DUP5 DUP5 PUSH2 0x4CD JUMP JUMPDEST SWAP1 POP SWAP3 SWAP2 POP POP JUMP JUMPDEST PUSH1 0x0 DUP3 PUSH2 0x4DD JUMPI PUSH1 0x1 SWAP1 POP PUSH2 0x599 JUMP JUMPDEST DUP2 PUSH2 0x4EB JUMPI PUSH1 0x0 SWAP1 POP PUSH2 0x599 JUMP JUMPDEST DUP2 PUSH1 0x1 DUP2 EQ PUSH2 0x501 JUMPI PUSH1 0x2 DUP2 EQ PUSH2 0x50B JUMPI PUSH2 0x53A JUMP JUMPDEST PUSH1 0x1 SWAP2 POP POP PUSH2 0x599 JUMP JUMPDEST PUSH1 0xFF DUP5 GT ISZERO PUSH2 0x51D JUMPI PUSH2 0x51C PUSH2 0x611 JUMP JUMPDEST JUMPDEST DUP4 PUSH1 0x2 EXP SWAP2 POP DUP5 DUP3 GT ISZERO PUSH2 0x534 JUMPI PUSH2 0x533 PUSH2 0x611 JUMP JUMPDEST JUMPDEST POP PUSH2 0x599 JUMP JUMPDEST POP PUSH1 0x20 DUP4 LT PUSH2 0x133 DUP4 LT AND PUSH1 0x4E DUP5 LT PUSH1 0xB DUP5 LT AND OR ISZERO PUSH2 0x56F JUMPI DUP3 DUP3 EXP SWAP1 POP DUP4 DUP2 GT ISZERO PUSH2 0x56A JUMPI PUSH2 0x569 PUSH2 0x611 JUMP JUMPDEST JUMPDEST PUSH2 0x599 JUMP JUMPDEST PUSH2 0x57C DUP5 DUP5 DUP5 PUSH1 0x1 PUSH2 0x42F JUMP JUMPDEST SWAP3 POP SWAP1 POP DUP2 DUP5 DIV DUP2 GT ISZERO PUSH2 0x593 JUMPI PUSH2 0x592 PUSH2 0x611 JUMP JUMPDEST JUMPDEST DUP2 DUP2 MUL SWAP1 POP JUMPDEST SWAP4 SWAP3 POP POP POP JUMP JUMPDEST PUSH1 0x0 PUSH2 0x5AB DUP3 PUSH2 0x5FA JUMP JUMPDEST SWAP2 POP PUSH2 0x5B6 DUP4 PUSH2 0x5FA JUMP JUMPDEST SWAP3 POP DUP2 PUSH32 0xFFFFFFFFFFFFFFFFFFFFFFFFFFFFFFFFFFFFFFFFFFFFFFFFFFFFFFFFFFFFFFFF DIV DUP4 GT DUP3 ISZERO ISZERO AND ISZERO PUSH2 0x5EF JUMPI PUSH2 0x5EE PUSH2 0x611 JUMP JUMPDEST JUMPDEST DUP3 DUP3 MUL SWAP1 POP SWAP3 SWAP2 POP POP JUMP JUMPDEST PUSH1 0x0 DUP2 SWAP1 POP SWAP2 SWAP1 POP JUMP JUMPDEST PUSH1 0x0 PUSH1 0xFF DUP3 AND SWAP1 POP SWAP2 SWAP1 POP JUMP JUMPDEST PUSH32 0x4E487B7100000000000000000000000000000000000000000000000000000000 PUSH1 0x0 MSTORE PUSH1 0x11 PUSH1 0x4 MSTORE PUSH1 0x24 PUSH1 0x0 REVERT JUMPDEST PUSH1 0x0 DUP1 REVERT JUMPDEST PUSH1 0x0 DUP2 PUSH1 0x1 SHR SWAP1 POP SWAP2 SWAP1 POP JUMP JUMPDEST PUSH2 0x65B DUP2 PUSH2 0x5FA JUMP JUMPDEST DUP2 EQ PUSH2 0x666 JUMPI PUSH1 0x0 DUP1 REVERT JUMPDEST POP JUMP JUMPDEST PUSH2 0x672 DUP2 PUSH2 0x604 JUMP JUMPDEST DUP2 EQ PUSH2 0x67D JUMPI PUSH1 0x0 DUP1 REVERT JUMPDEST POP JUMP INVALID LOG2 PUSH5 0x6970667358 0x22 SLT KECCAK256 LOG1 PUSH1 0xF9 0xE0 SAR 0x5E SUB 0xAE 0xC5 CALLCODE 0x4C CALL PUSH32 0xF41CF5A6943DE2E50531240378CD92EBBC1FF264736F6C634300080500330000 "
        },
        "methodIdentifiers": {
          "log2(uint256)": "5456bf13",
          "multiply(uint256,uint256)": "165c4a16",
          "power(uint256,uint8)": "14ae3dfe"
        }
      }
    }
  }
}