{
  "_format": "hh-sol-artifact-1",
  "contractName": "TestMathGas",
  "sourceName": "contracts/test/TestMathGas.sol",
  "abi": [
    {
      "inputs": [
        {
          "internalType": "uint256",
          "name": "x",
          "type": "uint256"
        }
      ],
      "name": "log2",
      "outputs": [
        {
          "internalType": "uint256",
          "name": "y",
          "type": "uint256"
        }
      ],
      "stateMutability": "pure",
      "type": "function"
    },
    {
      "inputs": [
        {
          "internalType": "uint256",
          "name": "x",
          "type": "uint256"
        },
        {
          "internalType": "uint256",
          "name": "y",
          "type": "uint256"
        }
      ],
      "name": "multiply",
      "outputs": [
        {
          "internalType": "uint256",
          "name": "",
          "type": "uint256"
        }
      ],
      "stateMutability": "pure",
      "type": "function"
    },
    {
      "inputs": [
        {
          "internalType": "uint256",
          "name": "x",
          "type": "uint256"
        },
        {
          "internalType": "uint8",
          "name": "factor_",
          "type": "uint8"
        }
      ],
      "name": "power",
      "outputs": [
        {
          "internalType": "uint256",
          "name": "",
          "type": "uint256"
        }
      ],
      "stateMutability": "pure",
      "type": "function"
    }
  ],
  "bytecode": "0x608060405234801561001057600080fd5b506106b6806100206000396000f3fe608060405234801561001057600080fd5b50600436106100415760003560e01c806314ae3dfe14610046578063165c4a16146100765780635456bf13146100a6575b600080fd5b610060600480360381019061005b91906103c5565b6100d6565b60405161006d9190610414565b60405180910390f35b610090600480360381019061008b9190610385565b6100ec565b60405161009d9190610414565b60405180910390f35b6100c060048036038101906100bb9190610358565b610102565b6040516100cd9190610414565b60405180910390f35b600081836100e49190610482565b905092915050565b600081836100fa91906105a0565b905092915050565b60008160018303925060028304831792506004830483179250601083048317925061010083048317925062010000830483179250640100000000830483179250680100000000000000008304831792507001000000000000000000000000000000008304831792506001830192506040517ff8f9cbfae6cc78fbefe7cdc3a1793dfcf4f0e8bbd8cec470b6a28a7a5a3e1efd81527ff5ecf1b3e9debc68e1d9cfabc5997135bfb7a7a3938b7b606b5b4b3f2f1f0ffe60208201527ff6e4ed9ff2d6b458eadcdf97bd91692de2d4da8fd2d0ac50c6ae9a827252361660408201527fc8c0b887b0a8a4489c948c7f847c6125746c645c544c444038302820181008ff60608201527ff7cae577eec2a03cf3bad76fb589591debb2dd67e0aa9834bea6925f6a4a2e0e60808201527fe39ed557db96902cd38ed14fad815115c786af479b7e8324736353433727170760a08201527fc976c13bb96e881cb166a933a55e490d9d56952b8d4e801485467d236242260660c08201527f753a6d1b65325d0c552a4d1345224105391a310b29122104190a11030902010060e082015261010081016040527e818283848586878898a8b8c8d8e8f929395969799a9b9d9e9faaeb6bedeeff7f01000000000000000000000000000000000000000000000000000000000000008082870204818160ff038501510495507f8000000000000000000000000000000000000000000000000000000000000000851161010002860195505050505050919050565b60008135905061033d81610652565b92915050565b60008135905061035281610669565b92915050565b60006020828403121561036e5761036d610640565b5b600061037c8482850161032e565b91505092915050565b6000806040838503121561039c5761039b610640565b5b60006103aa8582860161032e565b92505060206103bb8582860161032e565b9150509250929050565b600080604083850312156103dc576103db610640565b5b60006103ea8582860161032e565b92505060206103fb85828601610343565b9150509250929050565b61040e816105fa565b82525050565b60006020820190506104296000830184610405565b92915050565b6000808291508390505b60018511156104795780860481111561045557610454610611565b5b60018516156104645780820291505b808102905061047285610645565b9450610439565b94509492505050565b600061048d826105fa565b915061049883610604565b92506104c57fffffffffffffffffffffffffffffffffffffffffffffffffffffffffffffffff84846104cd565b905092915050565b6000826104dd5760019050610599565b816104eb5760009050610599565b8160018114610501576002811461050b5761053a565b6001915050610599565b60ff84111561051d5761051c610611565b5b8360020a91508482111561053457610533610611565b5b50610599565b5060208310610133831016604e8410600b841016171561056f5782820a90508381111561056a57610569610611565b5b610599565b61057c848484600161042f565b9250905081840481111561059357610592610611565b5b81810290505b9392505050565b60006105ab826105fa565b91506105b6836105fa565b9250817fffffffffffffffffffffffffffffffffffffffffffffffffffffffffffffffff04831182151516156105ef576105ee610611565b5b828202905092915050565b6000819050919050565b600060ff82169050919050565b7f4e487b7100000000000000000000000000000000000000000000000000000000600052601160045260246000fd5b600080fd5b60008160011c9050919050565b61065b816105fa565b811461066657600080fd5b50565b61067281610604565b811461067d57600080fd5b5056fea2646970667358221220cc3c20604ff3853d0b465ecb5a49532410d8b47c001069ae95ffc7aa19936bb364736f6c63430008050033",
  "linkReferences": {},
  "deployedLinkReferences": {}
}